{
  "contractName": "Student",
  "abi": [
    {
      "constant": true,
      "inputs": [],
      "name": "id",
      "outputs": [
        {
          "internalType": "uint256",
          "name": "",
          "type": "uint256"
        }
      ],
      "payable": false,
      "stateMutability": "view",
      "type": "function"
    },
    {
      "constant": true,
      "inputs": [
        {
          "internalType": "uint256",
          "name": "",
          "type": "uint256"
        }
      ],
      "name": "studentnames",
      "outputs": [
        {
          "internalType": "string",
          "name": "",
          "type": "string"
        }
      ],
      "payable": false,
      "stateMutability": "view",
      "type": "function"
    },
    {
      "constant": false,
      "inputs": [
        {
          "internalType": "string",
          "name": "_name",
          "type": "string"
        }
      ],
      "name": "register",
      "outputs": [],
      "payable": false,
      "stateMutability": "nonpayable",
      "type": "function"
    }
  ],
  "bytecode": "0x60806040526000805534801561001457600080fd5b5061038e806100246000396000f3fe608060405234801561001057600080fd5b50600436106100415760003560e01c8063050c151f14610046578063af640d0f146100ed578063f2c298be1461010b575b600080fd5b6100726004803603602081101561005c57600080fd5b81019080803590602001909291905050506101c6565b6040518080602001828103825283818151815260200191508051906020019080838360005b838110156100b2578082015181840152602081019050610097565b50505050905090810190601f1680156100df5780820380516001836020036101000a031916815260200191505b509250505060405180910390f35b6100f5610276565b6040518082815260200191505060405180910390f35b6101c46004803603602081101561012157600080fd5b810190808035906020019064010000000081111561013e57600080fd5b82018360208201111561015057600080fd5b8035906020019184600183028401116401000000008311171561017257600080fd5b91908080601f016020809104026020016040519081016040528093929190818152602001838380828437600081840152601f19601f82011690508083019250505050505050919291929050505061027c565b005b60016020528060005260406000206000915090508054600181600116156101000203166002900480601f01602080910402602001604051908101604052809291908181526020018280546001816001161561010002031660029004801561026e5780601f106102435761010080835404028352916020019161026e565b820191906000526020600020905b81548152906001019060200180831161025157829003601f168201915b505050505081565b60005481565b60016000540160008190555080600160008054815260200190815260200160002090805190602001906102b09291906102b4565b5050565b828054600181600116156101000203166002900490600052602060002090601f016020900481019282601f106102f557805160ff1916838001178555610323565b82800160010185558215610323579182015b82811115610322578251825591602001919060010190610307565b5b5090506103309190610334565b5090565b61035691905b8082111561035257600081600090555060010161033a565b5090565b9056fea265627a7a7231582075a3424f609f296514f23217fdc7180494774348c5c24c2ea39e1df938468f6e64736f6c63430005100032",
  "source": "// SPDX-License-Identifier: MIT\r\npragma solidity >=0.4.22 <0.8.0;\r\ncontract Student{   \r\n      \r\n    uint public id=0; \r\n     mapping(uint=>string) public studentnames;\r\n     function register( string memory _name)  public {\r\n         id=id+1;\r\n        studentnames[id]=_name;        \r\n     }   \r\n\r\n  \r\n}\r\n",
  "sourcePath": "/Users/princekurian/Desktop/College/contracts/Student.sol",
  "compiler": {
    "name": "solc",
    "version": "0.5.16+commit.9c3226ce.Emscripten.clang"
  },
  "schemaVersion": "3.4.4",
  "updatedAt": "2022-04-11T16:19:33.811Z",
  "networkType": "ethereum",
  "devdoc": {
    "methods": {}
  },
  "userdoc": {
    "methods": {}
  }
}